:10012C00E0250BF0E0250BF0E0250BF0E0250BF0C3
:10013C0022F0A3E50AF0A3E50BF0A3F0A3F0A3F0E3
:10014C0022902708F0A3E4F09027007404F022908A
:09015C0027027480F0A3E4F022F4
:1001CF009027007478F00000000090270DE020E0E9
:0201DF00F92203
:10019C0012015B902708F0A3F09027007403F00085
:0B01AC0000000090270DE020E0F92289
:10000300E4F50CF509F50A902707E0F50BA3E4F0F6
:10001300A304F0E4901008F0E50A541F7012E50AF7
:100023004509600CE50C70047E0180027E008E0C95
:10003300E50C701FE50A20E00DEF60047EAA800244
:100043007E558E0B802AEF60047E5580027EAA8E39
:100053000B801DE50A20E00DEF60047E5580027ED3
:10006300AA8E0B800BEF60047EAA80027E558E0B56
:10007300902702E50912013D90100812012C9027E8
:10008300007401F000000000050AE50A700205098A
:100093007004E50964407080E4F50C901009F0F5F4
:1000A30009F50AE50A541F7012E50A4509600CE5D3
:1000B3000C70047E0180027E008E0CE50C701FE53F
:1000C3000A20E00DEF60047EAA80027E558E0B802D
:1000D3002AEF60047E5580027EAA8E0B801DE50AFE
:1000E30020E00DEF60047E5580027EAA8E0B800B0C
:1000F300EF60047EAA80027E558E0BE50944809052
:10010300270212013D90100912012C90270074015F
:10011300F000000000050AE50A700205097004E515
:0801230009640160030200A65B
:01012B0022B1
:10016500E4FF902702F0A3F0744012014D00000057
:1001750000901008E0FE902701E06E60010F12016B
:100185005B0412014D00000000901009E0FE90276D
:0601950001E06E60010FA5
:01019B002241
:1001B70075D25575D2AA75D2CF43992012019C7F6B
:0701C70001120003120165A3
:0101CE00220E
:0801ED00E4F5081201B78F08C8
:0101F50022E7
:030000000201E119
:0C01E100787FE4F6D8FD75810C0201ED7A
:00000001FF
