:0D00D900902510EFF0902515E030E6F9229B
:0C00E600902515E030E0F9902510E0FFB7
:0100F20022EB
:0400AE00AB07AA06EC
:1000B200E4F9ED4C601E8B828A83E493FF1200D92F
:1000C2008B828A83E49329F90BBB00010AED1D7030
:0600D200E11C80DEAF011D
:0100D8002205
:1000030075D25575D2AA75D2CF9025137483F0900B
:1000130025177417F0902511E4F09025107403F060
:10002300902513F07F5A1200D91200E6901001E4D4
:10003300F0A3EFF0E0F8E4F0E8901001F01200E62E
:10004300901001E0F0A3E04FF01200E6AD07ED7D64
:1000530000FC1200E6EFFD901001E0FEA3E0780241
:10006300C333CE33CED8F9FF901003EEF0A3EFF0F5
:10007300AE04ED7802C333CE33CED8F9FDAC06908F
:100083001005E5A1F043A103901003E0FEA3E0FFF8
:100093001200AE901005E0F5A19025137483F09043
:0A00A3002510E4F09025137403F01B
:0100AD002230
:0800FF00120003901000EFF065
:0101070022D5
:030000000200F308
:0C00F300787FE4F6D8FD7581490200FF1B
:00000001FF
