:0D00C000902510EFF0902515E030E6F922B4
:0C00CD00902515E030E0F9902510E0FFD0
:0100D9002204
:04009500AB07AA0605
:10009900E4F9ED4C601E8B828A83E493FF1200C061
:1000A9008B828A83E49329F90BBB00010AED1D7049
:0600B900E11C80DEAF0136
:0100BF00221E
:1000030075D25575D2AA75D2CF9025137483F0900B
:1000130025177417F0902511E4F09025107403F060
:10002300902513F07F5A1200C01200CD901001E406
:10003300F0A3EFF0E0F8E4F0E8901001F01200CD47
:10004300901001E0F0A3E04FF01200CDAD07ED7D7D
:1000530000FC1200CDEFFD901001E0FEA3E078025A
:10006300C333CE33CED8F9FBAA06AE04ED7802C370
:1000730033CE33CED8F9FDAC06AE02AF03120095F2
:100083009025137483F0902510E4F09025137403E6
:01009300F07C
:010094002249
:0800E600120003901000EFF07E
:0100EE0022EF
:030000000200DA21
:0C00DA00787FE4F6D8FD7581490200E64D
:00000001FF
