:0D80C000902510EFF0902515E030E6F92234
:0C80CD00902515E030E0F9902510E0FF50
:0180D9002284
:04809500AB07AA0685
:10809900E4F9ED4C601E8B828A83E493FF1280C061
:1080A9008B828A83E49329F90BBB00010AED1D70C9
:0680B900E11C80DEAF01B6
:0180BF00229E
:1080030075D25575D2AA75D2CF9025137483F0908B
:1080130025177417F0902511E4F09025107403F0E0
:10802300902513F07F5A1280C01280CD900801E48E
:10803300F0A3EFF0E0F8E4F0E8900801F01280CD4F
:10804300900801E0F0A3E04FF01280CDAD07ED7D85
:1080530000FC1280CDEFFD900801E0FEA3E0780262
:10806300C333CE33CED8F9FBAA06AE04ED7802C3F0
:1080730033CE33CED8F9FDAC06AE02AF03128095F2
:108083009025137483F0902510E4F0902513740366
:01809300F0FC
:0180940022C9
:0880E600128003900800EFF086
:0180EE00226F
:030000000280DAA1
:0C80DA00787FE4F6D8FD7581490280E64D
:00000001FF
