:1000030075D25575D2AA75D2CF902708E4F0A30410
:10001300F090270EE4F0FFFE901002E07002A3E0E0
:100023006072901000E0FDA3E0902702CDF0A3EDF5
:10003300F074072FF58274103EF583E0902704F0E7
:1000430074062FF58274103EF583E0902705F07453
:10005300052FF58274103EF583E0902706F07404B3
:100063002FF58274103EF583E0902707F090270068
:100073007401F00000000074042FFFE43EFE9010B2
:1000830000E475F00112012690100274FFF5F012DE
:06009300012680847F00BD
:010099002244
:0300000002009A61
:0C009A00787FE4F6D8FD7581070200E1D4
:10012600C5F0F8A3E028F0C5F0F8E5821582700264
:060136001583E038F02201
:1000A600020003E493A3F8E493A34003F68001F26D
:1000B60008DFF48029E493A3F85407240CC8C3335B
:1000C600C4540F4420C8834004F456800146F6DF2A
:1000D600E4800B010204081020408090013CE47E7D
:1000E600019360BCA3FF543F30E509541FFEE4931F
:1000F600A360010ECF54C025E060A840B8E493A3E6
:10010600FAE493A3F8E493A3C8C582C8CAC583CA10
:10011600F0A3C8C582C8CAC583CADFE9DEE780BEC8
:01013C0000C2
:00000001FF
